{
  "contractName": "GoldenChainCoin",
  "abi": [
    {
      "inputs": [
        {
          "internalType": "address",
          "name": "initialOwner",
          "type": "address"
        }
      ],
      "stateMutability": "nonpayable",
      "type": "constructor"
    },
    {
      "inputs": [
        {
          "internalType": "address",
          "name": "spender",
          "type": "address"
        },
        {
          "internalType": "uint256",
          "name": "allowance",
          "type": "uint256"
        },
        {
          "internalType": "uint256",
          "name": "needed",
          "type": "uint256"
        }
      ],
      "name": "ERC20InsufficientAllowance",
      "type": "error"
    },
    {
      "inputs": [
        {
          "internalType": "address",
          "name": "sender",
          "type": "address"
        },
        {
          "internalType": "uint256",
          "name": "balance",
          "type": "uint256"
        },
        {
          "internalType": "uint256",
          "name": "needed",
          "type": "uint256"
        }
      ],
      "name": "ERC20InsufficientBalance",
      "type": "error"
    },
    {
      "inputs": [
        {
          "internalType": "address",
          "name": "approver",
          "type": "address"
        }
      ],
      "name": "ERC20InvalidApprover",
      "type": "error"
    },
    {
      "inputs": [
        {
          "internalType": "address",
          "name": "receiver",
          "type": "address"
        }
      ],
      "name": "ERC20InvalidReceiver",
      "type": "error"
    },
    {
      "inputs": [
        {
          "internalType": "address",
          "name": "sender",
          "type": "address"
        }
      ],
      "name": "ERC20InvalidSender",
      "type": "error"
    },
    {
      "inputs": [
        {
          "internalType": "address",
          "name": "spender",
          "type": "address"
        }
      ],
      "name": "ERC20InvalidSpender",
      "type": "error"
    },
    {
      "inputs": [],
      "name": "EnforcedPause",
      "type": "error"
    },
    {
      "inputs": [],
      "name": "ExpectedPause",
      "type": "error"
    },
    {
      "inputs": [
        {
          "internalType": "address",
          "name": "owner",
          "type": "address"
        }
      ],
      "name": "OwnableInvalidOwner",
      "type": "error"
    },
    {
      "inputs": [
        {
          "internalType": "address",
          "name": "account",
          "type": "address"
        }
      ],
      "name": "OwnableUnauthorizedAccount",
      "type": "error"
    },
    {
      "anonymous": false,
      "inputs": [
        {
          "indexed": true,
          "internalType": "address",
          "name": "owner",
          "type": "address"
        },
        {
          "indexed": true,
          "internalType": "address",
          "name": "spender",
          "type": "address"
        },
        {
          "indexed": false,
          "internalType": "uint256",
          "name": "value",
          "type": "uint256"
        }
      ],
      "name": "Approval",
      "type": "event"
    },
    {
      "anonymous": false,
      "inputs": [
        {
          "indexed": true,
          "internalType": "address",
          "name": "previousOwner",
          "type": "address"
        },
        {
          "indexed": true,
          "internalType": "address",
          "name": "newOwner",
          "type": "address"
        }
      ],
      "name": "OwnershipTransferred",
      "type": "event"
    },
    {
      "anonymous": false,
      "inputs": [
        {
          "indexed": false,
          "internalType": "address",
          "name": "account",
          "type": "address"
        }
      ],
      "name": "Paused",
      "type": "event"
    },
    {
      "anonymous": false,
      "inputs": [
        {
          "indexed": true,
          "internalType": "address",
          "name": "from",
          "type": "address"
        },
        {
          "indexed": true,
          "internalType": "address",
          "name": "to",
          "type": "address"
        },
        {
          "indexed": false,
          "internalType": "uint256",
          "name": "value",
          "type": "uint256"
        }
      ],
      "name": "Transfer",
      "type": "event"
    },
    {
      "anonymous": false,
      "inputs": [
        {
          "indexed": false,
          "internalType": "address",
          "name": "account",
          "type": "address"
        }
      ],
      "name": "Unpaused",
      "type": "event"
    },
    {
      "inputs": [
        {
          "internalType": "address",
          "name": "owner",
          "type": "address"
        },
        {
          "internalType": "address",
          "name": "spender",
          "type": "address"
        }
      ],
      "name": "allowance",
      "outputs": [
        {
          "internalType": "uint256",
          "name": "",
          "type": "uint256"
        }
      ],
      "stateMutability": "view",
      "type": "function"
    },
    {
      "inputs": [
        {
          "internalType": "address",
          "name": "spender",
          "type": "address"
        },
        {
          "internalType": "uint256",
          "name": "value",
          "type": "uint256"
        }
      ],
      "name": "approve",
      "outputs": [
        {
          "internalType": "bool",
          "name": "",
          "type": "bool"
        }
      ],
      "stateMutability": "nonpayable",
      "type": "function"
    },
    {
      "inputs": [
        {
          "internalType": "address",
          "name": "account",
          "type": "address"
        }
      ],
      "name": "balanceOf",
      "outputs": [
        {
          "internalType": "uint256",
          "name": "",
          "type": "uint256"
        }
      ],
      "stateMutability": "view",
      "type": "function"
    },
    {
      "inputs": [
        {
          "internalType": "uint256",
          "name": "value",
          "type": "uint256"
        }
      ],
      "name": "burn",
      "outputs": [],
      "stateMutability": "nonpayable",
      "type": "function"
    },
    {
      "inputs": [
        {
          "internalType": "address",
          "name": "account",
          "type": "address"
        },
        {
          "internalType": "uint256",
          "name": "value",
          "type": "uint256"
        }
      ],
      "name": "burnFrom",
      "outputs": [],
      "stateMutability": "nonpayable",
      "type": "function"
    },
    {
      "inputs": [],
      "name": "decimals",
      "outputs": [
        {
          "internalType": "uint8",
          "name": "",
          "type": "uint8"
        }
      ],
      "stateMutability": "view",
      "type": "function"
    },
    {
      "inputs": [],
      "name": "name",
      "outputs": [
        {
          "internalType": "string",
          "name": "",
          "type": "string"
        }
      ],
      "stateMutability": "view",
      "type": "function"
    },
    {
      "inputs": [],
      "name": "owner",
      "outputs": [
        {
          "internalType": "address",
          "name": "",
          "type": "address"
        }
      ],
      "stateMutability": "view",
      "type": "function"
    },
    {
      "inputs": [],
      "name": "paused",
      "outputs": [
        {
          "internalType": "bool",
          "name": "",
          "type": "bool"
        }
      ],
      "stateMutability": "view",
      "type": "function"
    },
    {
      "inputs": [],
      "name": "renounceOwnership",
      "outputs": [],
      "stateMutability": "nonpayable",
      "type": "function"
    },
    {
      "inputs": [],
      "name": "symbol",
      "outputs": [
        {
          "internalType": "string",
          "name": "",
          "type": "string"
        }
      ],
      "stateMutability": "view",
      "type": "function"
    },
    {
      "inputs": [],
      "name": "totalSupply",
      "outputs": [
        {
          "internalType": "uint256",
          "name": "",
          "type": "uint256"
        }
      ],
      "stateMutability": "view",
      "type": "function"
    },
    {
      "inputs": [
        {
          "internalType": "address",
          "name": "to",
          "type": "address"
        },
        {
          "internalType": "uint256",
          "name": "value",
          "type": "uint256"
        }
      ],
      "name": "transfer",
      "outputs": [
        {
          "internalType": "bool",
          "name": "",
          "type": "bool"
        }
      ],
      "stateMutability": "nonpayable",
      "type": "function"
    },
    {
      "inputs": [
        {
          "internalType": "address",
          "name": "from",
          "type": "address"
        },
        {
          "internalType": "address",
          "name": "to",
          "type": "address"
        },
        {
          "internalType": "uint256",
          "name": "value",
          "type": "uint256"
        }
      ],
      "name": "transferFrom",
      "outputs": [
        {
          "internalType": "bool",
          "name": "",
          "type": "bool"
        }
      ],
      "stateMutability": "nonpayable",
      "type": "function"
    },
    {
      "inputs": [
        {
          "internalType": "address",
          "name": "newOwner",
          "type": "address"
        }
      ],
      "name": "transferOwnership",
      "outputs": [],
      "stateMutability": "nonpayable",
      "type": "function"
    },
    {
      "inputs": [],
      "name": "pause",
      "outputs": [],
      "stateMutability": "nonpayable",
      "type": "function"
    },
    {
      "inputs": [],
      "name": "unpause",
      "outputs": [],
      "stateMutability": "nonpayable",
      "type": "function"
    },
    {
      "inputs": [
        {
          "internalType": "address",
          "name": "to",
          "type": "address"
        },
        {
          "internalType": "uint256",
          "name": "amount",
          "type": "uint256"
        }
      ],
      "name": "mint",
      "outputs": [],
      "stateMutability": "nonpayable",
      "type": "function"
    }
  ],
  "bytecode": "0x608060405234801562000010575f80fd5b506040516200210e3803806200210e83398181016040528101906200003691906200062c565b806040518060400160405280601181526020017f476f6c64656e20436861696e20436f696e0000000000000000000000000000008152506040518060400160405280600381526020017f47434300000000000000000000000000000000000000000000000000000000008152508160039081620000b49190620008c0565b508060049081620000c69190620008c0565b5050505f60055f6101000a81548160ff0219169083151502179055505f73ffffffffffffffffffffffffffffffffffffffff168173ffffffffffffffffffffffffffffffffffffffff160362000155575f6040517f1e4fbdf70000000000000000000000000000000000000000000000000000000081526004016200014c9190620009b5565b60405180910390fd5b6200016681620001ad60201b60201c565b50620001a6336200017c6200027260201b60201c565b600a6200018a919062000b59565b622dc6c06200019a919062000ba9565b6200027a60201b60201c565b5062000c94565b5f600560019054906101000a900473ffffffffffffffffffffffffffffffffffffffff16905081600560016101000a81548173ffffffffffffffffffffffffffffffffffffffff021916908373ffffffffffffffffffffffffffffffffffffffff1602179055508173ffffffffffffffffffffffffffffffffffffffff168173ffffffffffffffffffffffffffffffffffffffff167f8be0079c531659141344cd1fd0a4f28419497f9722a3daafe3b4186f6b6457e060405160405180910390a35050565b5f6012905090565b5f73ffffffffffffffffffffffffffffffffffffffff168273ffffffffffffffffffffffffffffffffffffffff1603620002ed575f6040517fec442f05000000000000000000000000000000000000000000000000000000008152600401620002e49190620009b5565b60405180910390fd5b620003005f83836200030460201b60201c565b5050565b620003178383836200031c60201b60201c565b505050565b6200032c6200034460201b60201c565b6200033f8383836200038e60201b60201c565b505050565b62000354620005b260201b60201c565b156200038c576040517fd93c066500000000000000000000000000000000000000000000000000000000815260040160405180910390fd5b565b5f73ffffffffffffffffffffffffffffffffffffffff168373ffffffffffffffffffffffffffffffffffffffff1603620003e2578060025f828254620003d5919062000bf3565b92505081905550620004b3565b5f805f8573ffffffffffffffffffffffffffffffffffffffff1673ffffffffffffffffffffffffffffffffffffffff1681526020019081526020015f20549050818110156200046e578381836040517fe450d38c000000000000000000000000000000000000000000000000000000008152600401620004659392919062000c3e565b60405180910390fd5b8181035f808673ffffffffffffffffffffffffffffffffffffffff1673ffffffffffffffffffffffffffffffffffffffff1681526020019081526020015f2081905550505b5f73ffffffffffffffffffffffffffffffffffffffff168273ffffffffffffffffffffffffffffffffffffffff1603620004fc578060025f828254039250508190555062000546565b805f808473ffffffffffffffffffffffffffffffffffffffff1673ffffffffffffffffffffffffffffffffffffffff1681526020019081526020015f205f82825401925050819055505b8173ffffffffffffffffffffffffffffffffffffffff168373ffffffffffffffffffffffffffffffffffffffff167fddf252ad1be2c89b69c2b068fc378daa952ba7f163c4a11628f55a4df523b3ef83604051620005a5919062000c79565b60405180910390a3505050565b5f60055f9054906101000a900460ff16905090565b5f80fd5b5f73ffffffffffffffffffffffffffffffffffffffff82169050919050565b5f620005f682620005cb565b9050919050565b6200060881620005ea565b811462000613575f80fd5b50565b5f815190506200062681620005fd565b92915050565b5f60208284031215620006445762000643620005c7565b5b5f620006538482850162000616565b91505092915050565b5f81519050919050565b7f4e487b71000000000000000000000000000000000000000000000000000000005f52604160045260245ffd5b7f4e487b71000000000000000000000000000000000000000000000000000000005f52602260045260245ffd5b5f6002820490506001821680620006d857607f821691505b602082108103620006ee57620006ed62000693565b5b50919050565b5f819050815f5260205f209050919050565b5f6020601f8301049050919050565b5f82821b905092915050565b5f60088302620007527fffffffffffffffffffffffffffffffffffffffffffffffffffffffffffffffff8262000715565b6200075e868362000715565b95508019841693508086168417925050509392505050565b5f819050919050565b5f819050919050565b5f620007a8620007a26200079c8462000776565b6200077f565b62000776565b9050919050565b5f819050919050565b620007c38362000788565b620007db620007d282620007af565b84845462000721565b825550505050565b5f90565b620007f1620007e3565b620007fe818484620007b8565b505050565b5b818110156200082557620008195f82620007e7565b60018101905062000804565b5050565b601f82111562000874576200083e81620006f4565b620008498462000706565b8101602085101562000859578190505b62000871620008688562000706565b83018262000803565b50505b505050565b5f82821c905092915050565b5f620008965f198460080262000879565b1980831691505092915050565b5f620008b0838362000885565b9150826002028217905092915050565b620008cb826200065c565b67ffffffffffffffff811115620008e757620008e662000666565b5b620008f38254620006c0565b6200090082828562000829565b5f60209050601f83116001811462000936575f841562000921578287015190505b6200092d8582620008a3565b8655506200099c565b601f1984166200094686620006f4565b5f5b828110156200096f5784890151825560018201915060208501945060208101905062000948565b868310156200098f57848901516200098b601f89168262000885565b8355505b6001600288020188555050505b505050505050565b620009af81620005ea565b82525050565b5f602082019050620009ca5f830184620009a4565b92915050565b7f4e487b71000000000000000000000000000000000000000000000000000000005f52601160045260245ffd5b5f8160011c9050919050565b5f808291508390505b600185111562000a5a5780860481111562000a325762000a31620009d0565b5b600185161562000a425780820291505b808102905062000a5285620009fd565b945062000a12565b94509492505050565b5f8262000a74576001905062000b46565b8162000a83575f905062000b46565b816001811462000a9c576002811462000aa75762000add565b600191505062000b46565b60ff84111562000abc5762000abb620009d0565b5b8360020a91508482111562000ad65762000ad5620009d0565b5b5062000b46565b5060208310610133831016604e8410600b841016171562000b175782820a90508381111562000b115762000b10620009d0565b5b62000b46565b62000b26848484600162000a09565b9250905081840481111562000b405762000b3f620009d0565b5b81810290505b9392505050565b5f60ff82169050919050565b5f62000b658262000776565b915062000b728362000b4d565b925062000ba17fffffffffffffffffffffffffffffffffffffffffffffffffffffffffffffffff848462000a63565b905092915050565b5f62000bb58262000776565b915062000bc28362000776565b925082820262000bd28162000776565b9150828204841483151762000bec5762000beb620009d0565b5b5092915050565b5f62000bff8262000776565b915062000c0c8362000776565b925082820190508082111562000c275762000c26620009d0565b5b92915050565b62000c388162000776565b82525050565b5f60608201905062000c535f830186620009a4565b62000c62602083018562000c2d565b62000c71604083018462000c2d565b949350505050565b5f60208201905062000c8e5f83018462000c2d565b92915050565b61146c8062000ca25f395ff3fe608060405234801561000f575f80fd5b5060043610610114575f3560e01c806370a08231116100a05780638da5cb5b1161006f5780638da5cb5b1461029257806395d89b41146102b0578063a9059cbb146102ce578063dd62ed3e146102fe578063f2fde38b1461032e57610114565b806370a0823114610232578063715018a61461026257806379cc67901461026c5780638456cb591461028857610114565b8063313ce567116100e7578063313ce567146101b45780633f4ba83a146101d257806340c10f19146101dc57806342966c68146101f85780635c975abb1461021457610114565b806306fdde0314610118578063095ea7b31461013657806318160ddd1461016657806323b872dd14610184575b5f80fd5b61012061034a565b60405161012d91906110ba565b60405180910390f35b610150600480360381019061014b919061116b565b6103da565b60405161015d91906111c3565b60405180910390f35b61016e6103fc565b60405161017b91906111eb565b60405180910390f35b61019e60048036038101906101999190611204565b610405565b6040516101ab91906111c3565b60405180910390f35b6101bc610433565b6040516101c9919061126f565b60405180910390f35b6101da61043b565b005b6101f660048036038101906101f1919061116b565b61044d565b005b610212600480360381019061020d9190611288565b610463565b005b61021c610477565b60405161022991906111c3565b60405180910390f35b61024c600480360381019061024791906112b3565b61048c565b60405161025991906111eb565b60405180910390f35b61026a6104d1565b005b6102866004803603810190610281919061116b565b6104e4565b005b610290610504565b005b61029a610516565b6040516102a791906112ed565b60405180910390f35b6102b861053f565b6040516102c591906110ba565b60405180910390f35b6102e860048036038101906102e3919061116b565b6105cf565b6040516102f591906111c3565b60405180910390f35b61031860048036038101906103139190611306565b6105f1565b60405161032591906111eb565b60405180910390f35b610348600480360381019061034391906112b3565b610673565b005b60606003805461035990611371565b80601f016020809104026020016040519081016040528092919081815260200182805461038590611371565b80156103d05780601f106103a7576101008083540402835291602001916103d0565b820191905f5260205f20905b8154815290600101906020018083116103b357829003601f168201915b5050505050905090565b5f806103e46106f7565b90506103f18185856106fe565b600191505092915050565b5f600254905090565b5f8061040f6106f7565b905061041c858285610710565b6104278585856107a2565b60019150509392505050565b5f6012905090565b610443610892565b61044b610919565b565b610455610892565b61045f828261097a565b5050565b61047461046e6106f7565b826109f9565b50565b5f60055f9054906101000a900460ff16905090565b5f805f8373ffffffffffffffffffffffffffffffffffffffff1673ffffffffffffffffffffffffffffffffffffffff1681526020019081526020015f20549050919050565b6104d9610892565b6104e25f610a78565b565b6104f6826104f06106f7565b83610710565b61050082826109f9565b5050565b61050c610892565b610514610b3d565b565b5f600560019054906101000a900473ffffffffffffffffffffffffffffffffffffffff16905090565b60606004805461054e90611371565b80601f016020809104026020016040519081016040528092919081815260200182805461057a90611371565b80156105c55780601f1061059c576101008083540402835291602001916105c5565b820191905f5260205f20905b8154815290600101906020018083116105a857829003601f168201915b5050505050905090565b5f806105d96106f7565b90506105e68185856107a2565b600191505092915050565b5f60015f8473ffffffffffffffffffffffffffffffffffffffff1673ffffffffffffffffffffffffffffffffffffffff1681526020019081526020015f205f8373ffffffffffffffffffffffffffffffffffffffff1673ffffffffffffffffffffffffffffffffffffffff1681526020019081526020015f2054905092915050565b61067b610892565b5f73ffffffffffffffffffffffffffffffffffffffff168173ffffffffffffffffffffffffffffffffffffffff16036106eb575f6040517f1e4fbdf70000000000000000000000000000000000000000000000000000000081526004016106e291906112ed565b60405180910390fd5b6106f481610a78565b50565b5f33905090565b61070b8383836001610b9f565b505050565b5f61071b84846105f1565b90507fffffffffffffffffffffffffffffffffffffffffffffffffffffffffffffffff811461079c578181101561078d578281836040517ffb8f41b2000000000000000000000000000000000000000000000000000000008152600401610784939291906113a1565b60405180910390fd5b61079b84848484035f610b9f565b5b50505050565b5f73ffffffffffffffffffffffffffffffffffffffff168373ffffffffffffffffffffffffffffffffffffffff1603610812575f6040517f96c6fd1e00000000000000000000000000000000000000000000000000000000815260040161080991906112ed565b60405180910390fd5b5f73ffffffffffffffffffffffffffffffffffffffff168273ffffffffffffffffffffffffffffffffffffffff1603610882575f6040517fec442f0500000000000000000000000000000000000000000000000000000000815260040161087991906112ed565b60405180910390fd5b61088d838383610d6e565b505050565b61089a6106f7565b73ffffffffffffffffffffffffffffffffffffffff166108b8610516565b73ffffffffffffffffffffffffffffffffffffffff1614610917576108db6106f7565b6040517f118cdaa700000000000000000000000000000000000000000000000000000000815260040161090e91906112ed565b60405180910390fd5b565b610921610d7e565b5f60055f6101000a81548160ff0219169083151502179055507f5db9ee0a495bf2e6ff9c91a7834c1ba4fdd244a5e8aa4e537bd38aeae4b073aa6109636106f7565b60405161097091906112ed565b60405180910390a1565b5f73ffffffffffffffffffffffffffffffffffffffff168273ffffffffffffffffffffffffffffffffffffffff16036109ea575f6040517fec442f050000000000000000000000000000000000000000000000000000000081526004016109e191906112ed565b60405180910390fd5b6109f55f8383610d6e565b5050565b5f73ffffffffffffffffffffffffffffffffffffffff168273ffffffffffffffffffffffffffffffffffffffff1603610a69575f6040517f96c6fd1e000000000000000000000000000000000000000000000000000000008152600401610a6091906112ed565b60405180910390fd5b610a74825f83610d6e565b5050565b5f600560019054906101000a900473ffffffffffffffffffffffffffffffffffffffff16905081600560016101000a81548173ffffffffffffffffffffffffffffffffffffffff021916908373ffffffffffffffffffffffffffffffffffffffff1602179055508173ffffffffffffffffffffffffffffffffffffffff168173ffffffffffffffffffffffffffffffffffffffff167f8be0079c531659141344cd1fd0a4f28419497f9722a3daafe3b4186f6b6457e060405160405180910390a35050565b610b45610dbe565b600160055f6101000a81548160ff0219169083151502179055507f62e78cea01bee320cd4e420270b5ea74000d11b0c9f74754ebdbfc544b05a258610b886106f7565b604051610b9591906112ed565b60405180910390a1565b5f73ffffffffffffffffffffffffffffffffffffffff168473ffffffffffffffffffffffffffffffffffffffff1603610c0f575f6040517fe602df05000000000000000000000000000000000000000000000000000000008152600401610c0691906112ed565b60405180910390fd5b5f73ffffffffffffffffffffffffffffffffffffffff168373ffffffffffffffffffffffffffffffffffffffff1603610c7f575f6040517f94280d62000000000000000000000000000000000000000000000000000000008152600401610c7691906112ed565b60405180910390fd5b8160015f8673ffffffffffffffffffffffffffffffffffffffff1673ffffffffffffffffffffffffffffffffffffffff1681526020019081526020015f205f8573ffffffffffffffffffffffffffffffffffffffff1673ffffffffffffffffffffffffffffffffffffffff1681526020019081526020015f20819055508015610d68578273ffffffffffffffffffffffffffffffffffffffff168473ffffffffffffffffffffffffffffffffffffffff167f8c5be1e5ebec7d5bd14f71427d1e84f3dd0314c0f7b2291e5b200ac8c7c3b92584604051610d5f91906111eb565b60405180910390a35b50505050565b610d79838383610dff565b505050565b610d86610477565b610dbc576040517f8dfc202b00000000000000000000000000000000000000000000000000000000815260040160405180910390fd5b565b610dc6610477565b15610dfd576040517fd93c066500000000000000000000000000000000000000000000000000000000815260040160405180910390fd5b565b610e07610dbe565b610e12838383610e17565b505050565b5f73ffffffffffffffffffffffffffffffffffffffff168373ffffffffffffffffffffffffffffffffffffffff1603610e67578060025f828254610e5b9190611403565b92505081905550610f35565b5f805f8573ffffffffffffffffffffffffffffffffffffffff1673ffffffffffffffffffffffffffffffffffffffff1681526020019081526020015f2054905081811015610ef0578381836040517fe450d38c000000000000000000000000000000000000000000000000000000008152600401610ee7939291906113a1565b60405180910390fd5b8181035f808673ffffffffffffffffffffffffffffffffffffffff1673ffffffffffffffffffffffffffffffffffffffff1681526020019081526020015f2081905550505b5f73ffffffffffffffffffffffffffffffffffffffff168273ffffffffffffffffffffffffffffffffffffffff1603610f7c578060025f8282540392505081905550610fc6565b805f808473ffffffffffffffffffffffffffffffffffffffff1673ffffffffffffffffffffffffffffffffffffffff1681526020019081526020015f205f82825401925050819055505b8173ffffffffffffffffffffffffffffffffffffffff168373ffffffffffffffffffffffffffffffffffffffff167fddf252ad1be2c89b69c2b068fc378daa952ba7f163c4a11628f55a4df523b3ef8360405161102391906111eb565b60405180910390a3505050565b5f81519050919050565b5f82825260208201905092915050565b5f5b8381101561106757808201518184015260208101905061104c565b5f8484015250505050565b5f601f19601f8301169050919050565b5f61108c82611030565b611096818561103a565b93506110a681856020860161104a565b6110af81611072565b840191505092915050565b5f6020820190508181035f8301526110d28184611082565b905092915050565b5f80fd5b5f73ffffffffffffffffffffffffffffffffffffffff82169050919050565b5f611107826110de565b9050919050565b611117816110fd565b8114611121575f80fd5b50565b5f813590506111328161110e565b92915050565b5f819050919050565b61114a81611138565b8114611154575f80fd5b50565b5f8135905061116581611141565b92915050565b5f8060408385031215611181576111806110da565b5b5f61118e85828601611124565b925050602061119f85828601611157565b9150509250929050565b5f8115159050919050565b6111bd816111a9565b82525050565b5f6020820190506111d65f8301846111b4565b92915050565b6111e581611138565b82525050565b5f6020820190506111fe5f8301846111dc565b92915050565b5f805f6060848603121561121b5761121a6110da565b5b5f61122886828701611124565b935050602061123986828701611124565b925050604061124a86828701611157565b9150509250925092565b5f60ff82169050919050565b61126981611254565b82525050565b5f6020820190506112825f830184611260565b92915050565b5f6020828403121561129d5761129c6110da565b5b5f6112aa84828501611157565b91505092915050565b5f602082840312156112c8576112c76110da565b5b5f6112d584828501611124565b91505092915050565b6112e7816110fd565b82525050565b5f6020820190506113005f8301846112de565b92915050565b5f806040838503121561131c5761131b6110da565b5b5f61132985828601611124565b925050602061133a85828601611124565b9150509250929050565b7f4e487b71000000000000000000000000000000000000000000000000000000005f52602260045260245ffd5b5f600282049050600182168061138857607f821691505b60208210810361139b5761139a611344565b5b50919050565b5f6060820190506113b45f8301866112de565b6113c160208301856111dc565b6113ce60408301846111dc565b949350505050565b7f4e487b71000000000000000000000000000000000000000000000000000000005f52601160045260245ffd5b5f61140d82611138565b915061141883611138565b92508282019050808211156114305761142f6113d6565b5b9291505056fea2646970667358221220e13d1eedd0c2132245044e1f26dcf1f90047893e424462be104dc89f16eff1d864736f6c63430008150033",
  "immutableReferences": {},
  "source": "// SPDX-License-Identifier: MIT\n// Compatible with OpenZeppelin Contracts ^5.0.0\npragma solidity ^0.8.20;\n\nimport \"@openzeppelin/contracts/token/ERC20/ERC20.sol\";\nimport \"@openzeppelin/contracts/token/ERC20/extensions/ERC20Burnable.sol\";\nimport \"@openzeppelin/contracts/token/ERC20/extensions/ERC20Pausable.sol\";\nimport \"@openzeppelin/contracts/access/Ownable.sol\";\n\n\n/// @custom:security-contact oudoumariko@gmail.com\ncontract GoldenChainCoin is ERC20, ERC20Burnable, ERC20Pausable, Ownable {\n    constructor(address initialOwner)\n        ERC20(\"Golden Chain Coin\", \"GCC\")\n        Ownable(initialOwner)\n    {\n        _mint(msg.sender, 3000000 * 10 ** decimals());\n    }\n\n    function pause() public onlyOwner {\n        _pause();\n    }\n\n    function unpause() public onlyOwner {\n        _unpause();\n    }\n\n    function mint(address to, uint256 amount) public onlyOwner {\n        _mint(to, amount);\n    }\n\n    // The following functions are overrides required by Solidity.\n\n    function _update(address from, address to, uint256 value)\n        internal\n        override(ERC20, ERC20Pausable)\n    {\n        super._update(from, to, value);\n    }\n}\n",
  "sourcePath": "/Users/HP/Desktop/Smart_Contract/contracts/Golden Chain Coin.sol",
  "compiler": {
    "name": "solc",
    "version": "0.8.21+commit.d9974bed.Emscripten.clang"
  },
  "schemaVersion": "3.4.16",
  "updatedAt": "2024-07-04T18:19:08.918Z",
  "devdoc": {
    "custom:security-contact": "oudoumariko@gmail.com",
    "errors": {
      "ERC20InsufficientAllowance(address,uint256,uint256)": [
        {
          "details": "Indicates a failure with the `spender`s `allowance`. Used in transfers.",
          "params": {
            "allowance": "Amount of tokens a `spender` is allowed to operate with.",
            "needed": "Minimum amount required to perform a transfer.",
            "spender": "Address that may be allowed to operate on tokens without being their owner."
          }
        }
      ],
      "ERC20InsufficientBalance(address,uint256,uint256)": [
        {
          "details": "Indicates an error related to the current `balance` of a `sender`. Used in transfers.",
          "params": {
            "balance": "Current balance for the interacting account.",
            "needed": "Minimum amount required to perform a transfer.",
            "sender": "Address whose tokens are being transferred."
          }
        }
      ],
      "ERC20InvalidApprover(address)": [
        {
          "details": "Indicates a failure with the `approver` of a token to be approved. Used in approvals.",
          "params": {
            "approver": "Address initiating an approval operation."
          }
        }
      ],
      "ERC20InvalidReceiver(address)": [
        {
          "details": "Indicates a failure with the token `receiver`. Used in transfers.",
          "params": {
            "receiver": "Address to which tokens are being transferred."
          }
        }
      ],
      "ERC20InvalidSender(address)": [
        {
          "details": "Indicates a failure with the token `sender`. Used in transfers.",
          "params": {
            "sender": "Address whose tokens are being transferred."
          }
        }
      ],
      "ERC20InvalidSpender(address)": [
        {
          "details": "Indicates a failure with the `spender` to be approved. Used in approvals.",
          "params": {
            "spender": "Address that may be allowed to operate on tokens without being their owner."
          }
        }
      ],
      "EnforcedPause()": [
        {
          "details": "The operation failed because the contract is paused."
        }
      ],
      "ExpectedPause()": [
        {
          "details": "The operation failed because the contract is not paused."
        }
      ],
      "OwnableInvalidOwner(address)": [
        {
          "details": "The owner is not a valid owner account. (eg. `address(0)`)"
        }
      ],
      "OwnableUnauthorizedAccount(address)": [
        {
          "details": "The caller account is not authorized to perform an operation."
        }
      ]
    },
    "events": {
      "Approval(address,address,uint256)": {
        "details": "Emitted when the allowance of a `spender` for an `owner` is set by a call to {approve}. `value` is the new allowance."
      },
      "Paused(address)": {
        "details": "Emitted when the pause is triggered by `account`."
      },
      "Transfer(address,address,uint256)": {
        "details": "Emitted when `value` tokens are moved from one account (`from`) to another (`to`). Note that `value` may be zero."
      },
      "Unpaused(address)": {
        "details": "Emitted when the pause is lifted by `account`."
      }
    },
    "kind": "dev",
    "methods": {
      "allowance(address,address)": {
        "details": "See {IERC20-allowance}."
      },
      "approve(address,uint256)": {
        "details": "See {IERC20-approve}. NOTE: If `value` is the maximum `uint256`, the allowance is not updated on `transferFrom`. This is semantically equivalent to an infinite approval. Requirements: - `spender` cannot be the zero address."
      },
      "balanceOf(address)": {
        "details": "See {IERC20-balanceOf}."
      },
      "burn(uint256)": {
        "details": "Destroys a `value` amount of tokens from the caller. See {ERC20-_burn}."
      },
      "burnFrom(address,uint256)": {
        "details": "Destroys a `value` amount of tokens from `account`, deducting from the caller's allowance. See {ERC20-_burn} and {ERC20-allowance}. Requirements: - the caller must have allowance for ``accounts``'s tokens of at least `value`."
      },
      "decimals()": {
        "details": "Returns the number of decimals used to get its user representation. For example, if `decimals` equals `2`, a balance of `505` tokens should be displayed to a user as `5.05` (`505 / 10 ** 2`). Tokens usually opt for a value of 18, imitating the relationship between Ether and Wei. This is the default value returned by this function, unless it's overridden. NOTE: This information is only used for _display_ purposes: it in no way affects any of the arithmetic of the contract, including {IERC20-balanceOf} and {IERC20-transfer}."
      },
      "name()": {
        "details": "Returns the name of the token."
      },
      "owner()": {
        "details": "Returns the address of the current owner."
      },
      "paused()": {
        "details": "Returns true if the contract is paused, and false otherwise."
      },
      "renounceOwnership()": {
        "details": "Leaves the contract without owner. It will not be possible to call `onlyOwner` functions. Can only be called by the current owner. NOTE: Renouncing ownership will leave the contract without an owner, thereby disabling any functionality that is only available to the owner."
      },
      "symbol()": {
        "details": "Returns the symbol of the token, usually a shorter version of the name."
      },
      "totalSupply()": {
        "details": "See {IERC20-totalSupply}."
      },
      "transfer(address,uint256)": {
        "details": "See {IERC20-transfer}. Requirements: - `to` cannot be the zero address. - the caller must have a balance of at least `value`."
      },
      "transferFrom(address,address,uint256)": {
        "details": "See {IERC20-transferFrom}. Emits an {Approval} event indicating the updated allowance. This is not required by the EIP. See the note at the beginning of {ERC20}. NOTE: Does not update the allowance if the current allowance is the maximum `uint256`. Requirements: - `from` and `to` cannot be the zero address. - `from` must have a balance of at least `value`. - the caller must have allowance for ``from``'s tokens of at least `value`."
      },
      "transferOwnership(address)": {
        "details": "Transfers ownership of the contract to a new account (`newOwner`). Can only be called by the current owner."
      }
    },
    "version": 1
  },
  "userdoc": {
    "kind": "user",
    "methods": {},
    "version": 1
  }
}